{
  "abi": [
    {
      "inputs": [
        {
          "internalType": "uint256",
          "name": "_amount",
          "type": "uint256"
        }
      ],
      "name": "swapBAPtoSTC",
      "outputs": [],
      "stateMutability": "nonpayable",
      "type": "function"
    },
    {
      "inputs": [
        {
          "internalType": "uint256",
          "name": "_amount",
          "type": "uint256"
        }
      ],
      "name": "swapSTCtoBAP",
      "outputs": [],
      "stateMutability": "nonpayable",
      "type": "function"
    }
  ],
  "bytecode": {
    "object": "0x6080604052600080546001600160a01b031990811673cff6c87b4881a2dc06050996ad20c94f3378f2899081179092556001805482167331716589c4703b4354f5a48ddd048afea7b1965690811790915560028054831684179055600380548316821790556004805483169093179092556005805482169092179091556006805490911673694aa1769357215de4fac081bf1f309adc3253061790553480156100a757600080fd5b5061055a806100b76000396000f3fe608060405234801561001057600080fd5b50600436106100365760003560e01c806375db0bc41461003b578063fbc31bf214610050575b600080fd5b61004e61004936600461040b565b610063565b005b61004e61005e36600461040b565b6101ff565b60065460408051633fabe5a360e21b815290516000926001600160a01b03169163feaf968c9160048083019260a09291908290030181865afa1580156100ad573d6000803e3d6000fd5b505050506040513d601f19601f820116820180604052508101906100d19190610443565b50505091505060008183670de0b6b3a76400006100ee9190610493565b6100fc906305f5e100610493565b6101069190610493565b6002546040516323b872dd60e01b8152336004820152306024820152604481018690529192506001600160a01b0316906323b872dd906064016020604051808303816000875af115801561015e573d6000803e3d6000fd5b505050506040513d601f19601f8201168201806040525081019061018291906104c0565b5060035460405163a9059cbb60e01b8152336004820152602481018390526001600160a01b039091169063a9059cbb906044015b6020604051808303816000875af11580156101d5573d6000803e3d6000fd5b505050506040513d601f19601f820116820180604052508101906101f991906104c0565b50505050565b600354604051636eb1769f60e11b815233600482015230602482015282916001600160a01b03169063dd62ed3e90604401602060405180830381865afa15801561024d573d6000803e3d6000fd5b505050506040513d601f19601f8201168201806040525081019061027191906104e9565b146102b45760405162461bcd60e51b815260206004820152600f60248201526e57726f6e6720616c6c6f77616e636560881b604482015260640160405180910390fd5b60065460408051633fabe5a360e21b815290516000926001600160a01b03169163feaf968c9160048083019260a09291908290030181865afa1580156102fe573d6000803e3d6000fd5b505050506040513d601f19601f820116820180604052508101906103229190610443565b50505091505060008183670de0b6b3a764000061033f9190610493565b61034d906305f5e100610493565b6103579190610502565b6003546040516323b872dd60e01b8152336004820152306024820152604481018690529192506001600160a01b0316906323b872dd906064016020604051808303816000875af11580156103af573d6000803e3d6000fd5b505050506040513d601f19601f820116820180604052508101906103d391906104c0565b5060025460405163a9059cbb60e01b8152336004820152602481018390526001600160a01b039091169063a9059cbb906044016101b6565b60006020828403121561041d57600080fd5b5035919050565b805169ffffffffffffffffffff8116811461043e57600080fd5b919050565b600080600080600060a0868803121561045b57600080fd5b61046486610424565b945060208601519350604086015192506060860151915061048760808701610424565b90509295509295909350565b60008160001904831182151516156104bb57634e487b7160e01b600052601160045260246000fd5b500290565b6000602082840312156104d257600080fd5b815180151581146104e257600080fd5b9392505050565b6000602082840312156104fb57600080fd5b5051919050565b60008261051f57634e487b7160e01b600052601260045260246000fd5b50049056fea26469706673582212202b6fc5c7d47040084a8b289447d8dda2011dd667f7002f9faacb369c4d4674eb64736f6c634300080d0033",
    "linkReferences": {}
  },
  "methodIdentifiers": {
    "swapBAPtoSTC(uint256)": "75db0bc4",
    "swapSTCtoBAP(uint256)": "fbc31bf2"
  },
  "id": 20
}