{
  "abi": [
    {
      "inputs": [
        {
          "internalType": "uint256",
          "name": "_amount",
          "type": "uint256"
        }
      ],
      "name": "swapBAPtoSTC",
      "outputs": [],
      "stateMutability": "nonpayable",
      "type": "function"
    },
    {
      "inputs": [
        {
          "internalType": "uint256",
          "name": "_amount",
          "type": "uint256"
        }
      ],
      "name": "swapSTCtoBAP",
      "outputs": [],
      "stateMutability": "nonpayable",
      "type": "function"
    }
  ],
  "bytecode": {
    "object": "0x6080604052600080546001600160a01b031990811673174562ba0bdb890ffd7046c8890edeea30eee93d908117909255600180548216730c302e08dbb72a3f361512137936ad2cfa21ec7490811790915560028054831684179055600380548316821790556004805483169093179092556005805482169092179091556006805490911673d4a33860578de61dbabdc8bfdb98fd742fa7028e1790553480156100a757600080fd5b50610478806100b76000396000f3fe608060405234801561001057600080fd5b50600436106100365760003560e01c806375db0bc41461003b578063fbc31bf214610050575b600080fd5b61004e610049366004610344565b610063565b005b61004e61005e366004610344565b610290565b60065460408051633fabe5a360e21b815290516000926001600160a01b03169163feaf968c9160048083019260a09291908290030181865afa1580156100ad573d6000803e3d6000fd5b505050506040513d601f19601f820116820180604052508101906100d1919061037c565b505050915050600081836305f5e1006100ea91906103cc565b6100f491906103cc565b6005549091506001600160a01b031663644e9c18306101176305f5e100856103f7565b6040516001600160e01b031960e085901b1681526001600160a01b0390921660048301526024820152604401600060405180830381600087803b15801561015d57600080fd5b505af1158015610171573d6000803e3d6000fd5b50506003546040516323b872dd60e01b8152336004820152306024820152604481018790526001600160a01b0390911692506323b872dd91506064016020604051808303816000875af11580156101cc573d6000803e3d6000fd5b505050506040513d601f19601f820116820180604052508101906101f09190610419565b506002546001600160a01b03166323b872dd30336102126305f5e100866103f7565b6040516001600160e01b031960e086901b1681526001600160a01b03938416600482015292909116602483015260448201526064016020604051808303816000875af1158015610266573d6000803e3d6000fd5b505050506040513d601f19601f8201168201806040525081019061028a9190610419565b50505050565b60065460408051633fabe5a360e21b815290516000926001600160a01b03169163feaf968c9160048083019260a09291908290030181865afa1580156102da573d6000803e3d6000fd5b505050506040513d601f19601f820116820180604052508101906102fe919061037c565b505050915050600081836305f5e10061031791906103cc565b61032191906103f7565b6004549091506001600160a01b031663644e9c18306101176305f5e100856103f7565b60006020828403121561035657600080fd5b5035919050565b805169ffffffffffffffffffff8116811461037757600080fd5b919050565b600080600080600060a0868803121561039457600080fd5b61039d8661035d565b94506020860151935060408601519250606086015191506103c06080870161035d565b90509295509295909350565b80820281158282048414176103f157634e487b7160e01b600052601160045260246000fd5b92915050565b60008261041457634e487b7160e01b600052601260045260246000fd5b500490565b60006020828403121561042b57600080fd5b8151801515811461043b57600080fd5b939250505056fea2646970667358221220fe0b21fb379f372f5174ec93a21e122fadf51ef6db9bf4b219014b5cc5d50d8864736f6c63430008150033",
    "linkReferences": {}
  },
  "methodIdentifiers": {
    "swapBAPtoSTC(uint256)": "75db0bc4",
    "swapSTCtoBAP(uint256)": "fbc31bf2"
  },
  "id": 20
}