{
  "abi": [
    {
      "inputs": [],
      "stateMutability": "nonpayable",
      "type": "constructor"
    },
    {
      "inputs": [
        {
          "internalType": "address",
          "name": "spender",
          "type": "address"
        },
        {
          "internalType": "uint256",
          "name": "allowance",
          "type": "uint256"
        },
        {
          "internalType": "uint256",
          "name": "needed",
          "type": "uint256"
        }
      ],
      "name": "ERC20InsufficientAllowance",
      "type": "error"
    },
    {
      "inputs": [
        {
          "internalType": "address",
          "name": "sender",
          "type": "address"
        },
        {
          "internalType": "uint256",
          "name": "balance",
          "type": "uint256"
        },
        {
          "internalType": "uint256",
          "name": "needed",
          "type": "uint256"
        }
      ],
      "name": "ERC20InsufficientBalance",
      "type": "error"
    },
    {
      "inputs": [
        {
          "internalType": "address",
          "name": "approver",
          "type": "address"
        }
      ],
      "name": "ERC20InvalidApprover",
      "type": "error"
    },
    {
      "inputs": [
        {
          "internalType": "address",
          "name": "receiver",
          "type": "address"
        }
      ],
      "name": "ERC20InvalidReceiver",
      "type": "error"
    },
    {
      "inputs": [
        {
          "internalType": "address",
          "name": "sender",
          "type": "address"
        }
      ],
      "name": "ERC20InvalidSender",
      "type": "error"
    },
    {
      "inputs": [
        {
          "internalType": "address",
          "name": "spender",
          "type": "address"
        }
      ],
      "name": "ERC20InvalidSpender",
      "type": "error"
    },
    {
      "anonymous": false,
      "inputs": [
        {
          "indexed": true,
          "internalType": "address",
          "name": "owner",
          "type": "address"
        },
        {
          "indexed": true,
          "internalType": "address",
          "name": "spender",
          "type": "address"
        },
        {
          "indexed": false,
          "internalType": "uint256",
          "name": "value",
          "type": "uint256"
        }
      ],
      "name": "Approval",
      "type": "event"
    },
    {
      "anonymous": false,
      "inputs": [
        {
          "indexed": true,
          "internalType": "address",
          "name": "from",
          "type": "address"
        },
        {
          "indexed": true,
          "internalType": "address",
          "name": "to",
          "type": "address"
        },
        {
          "indexed": false,
          "internalType": "uint256",
          "name": "value",
          "type": "uint256"
        }
      ],
      "name": "Transfer",
      "type": "event"
    },
    {
      "inputs": [
        {
          "internalType": "address",
          "name": "_add",
          "type": "address"
        }
      ],
      "name": "ChangeUser",
      "outputs": [],
      "stateMutability": "nonpayable",
      "type": "function"
    },
    {
      "inputs": [
        {
          "internalType": "address",
          "name": "_cible",
          "type": "address"
        },
        {
          "internalType": "uint256",
          "name": "_amount",
          "type": "uint256"
        }
      ],
      "name": "CreateMoney",
      "outputs": [],
      "stateMutability": "nonpayable",
      "type": "function"
    },
    {
      "inputs": [
        {
          "internalType": "address",
          "name": "owner",
          "type": "address"
        },
        {
          "internalType": "address",
          "name": "spender",
          "type": "address"
        }
      ],
      "name": "allowance",
      "outputs": [
        {
          "internalType": "uint256",
          "name": "",
          "type": "uint256"
        }
      ],
      "stateMutability": "view",
      "type": "function"
    },
    {
      "inputs": [
        {
          "internalType": "address",
          "name": "spender",
          "type": "address"
        },
        {
          "internalType": "uint256",
          "name": "value",
          "type": "uint256"
        }
      ],
      "name": "approve",
      "outputs": [
        {
          "internalType": "bool",
          "name": "",
          "type": "bool"
        }
      ],
      "stateMutability": "nonpayable",
      "type": "function"
    },
    {
      "inputs": [
        {
          "internalType": "address",
          "name": "account",
          "type": "address"
        }
      ],
      "name": "balanceOf",
      "outputs": [
        {
          "internalType": "uint256",
          "name": "",
          "type": "uint256"
        }
      ],
      "stateMutability": "view",
      "type": "function"
    },
    {
      "inputs": [],
      "name": "decimals",
      "outputs": [
        {
          "internalType": "uint8",
          "name": "",
          "type": "uint8"
        }
      ],
      "stateMutability": "view",
      "type": "function"
    },
    {
      "inputs": [],
      "name": "name",
      "outputs": [
        {
          "internalType": "string",
          "name": "",
          "type": "string"
        }
      ],
      "stateMutability": "view",
      "type": "function"
    },
    {
      "inputs": [],
      "name": "symbol",
      "outputs": [
        {
          "internalType": "string",
          "name": "",
          "type": "string"
        }
      ],
      "stateMutability": "view",
      "type": "function"
    },
    {
      "inputs": [],
      "name": "totalSupply",
      "outputs": [
        {
          "internalType": "uint256",
          "name": "",
          "type": "uint256"
        }
      ],
      "stateMutability": "view",
      "type": "function"
    },
    {
      "inputs": [
        {
          "internalType": "address",
          "name": "to",
          "type": "address"
        },
        {
          "internalType": "uint256",
          "name": "value",
          "type": "uint256"
        }
      ],
      "name": "transfer",
      "outputs": [
        {
          "internalType": "bool",
          "name": "",
          "type": "bool"
        }
      ],
      "stateMutability": "nonpayable",
      "type": "function"
    },
    {
      "inputs": [
        {
          "internalType": "address",
          "name": "from",
          "type": "address"
        },
        {
          "internalType": "address",
          "name": "to",
          "type": "address"
        },
        {
          "internalType": "uint256",
          "name": "value",
          "type": "uint256"
        }
      ],
      "name": "transferFrom",
      "outputs": [
        {
          "internalType": "bool",
          "name": "",
          "type": "bool"
        }
      ],
      "stateMutability": "nonpayable",
      "type": "function"
    }
  ],
  "bytecode": {
    "object": "0x608060405260058054732bdc20f9377221032bcbfbcf9ea5bb8b4a2121656001600160a01b0319918216811790925560068054909116909117905534801561004657600080fd5b506040518060400160405280600a81526020016929ba30b13632a1b7b0b760b11b8152506040518060400160405280600381526020016253544360e81b815250816003908051906020019061009c9291906100b8565b5080516100b09060049060208401906100b8565b50505061018b565b8280546100c490610151565b90600052602060002090601f0160209004810192826100e6576000855561012c565b82601f106100ff57805160ff191683800117855561012c565b8280016001018555821561012c579182015b8281111561012c578251825591602001919060010190610111565b5061013892915061013c565b5090565b5b80821115610138576000815560010161013d565b600181811c9082168061016557607f821691505b60208210810361018557634e487b7160e01b600052602260045260246000fd5b50919050565b6107fa8061019a6000396000f3fe608060405234801561001057600080fd5b50600436106100a95760003560e01c8063644e9c1811610071578063644e9c181461012357806370a082311461013857806395d89b4114610161578063a9059cbb14610169578063b4c7f2601461017c578063dd62ed3e1461018f57600080fd5b806306fdde03146100ae578063095ea7b3146100cc57806318160ddd146100ef57806323b872dd14610101578063313ce56714610114575b600080fd5b6100b66101c8565b6040516100c39190610638565b60405180910390f35b6100df6100da3660046106a9565b61025a565b60405190151581526020016100c3565b6002545b6040519081526020016100c3565b6100df61010f3660046106d3565b610272565b604051601281526020016100c3565b6101366101313660046106a9565b610296565b005b6100f361014636600461070f565b6001600160a01b031660009081526020819052604090205490565b6100b66102a4565b6100df6101773660046106a9565b6102b3565b61013661018a36600461070f565b6102c1565b6100f361019d366004610731565b6001600160a01b03918216600090815260016020908152604080832093909416825291909152205490565b6060600380546101d790610764565b80601f016020809104026020016040519081016040528092919081815260200182805461020390610764565b80156102505780601f1061022557610100808354040283529160200191610250565b820191906000526020600020905b81548152906001019060200180831161023357829003601f168201915b5050505050905090565b60003361026881858561030f565b5060019392505050565b600033610280858285610321565b61028b8585856103a4565b506001949350505050565b6102a08282610403565b5050565b6060600480546101d790610764565b6000336102688185856103a4565b6005546001600160a01b03163314806102e457506006546001600160a01b031633145b6102ed57600080fd5b600680546001600160a01b0319166001600160a01b0392909216919091179055565b61031c8383836001610439565b505050565b6001600160a01b03838116600090815260016020908152604080832093861683529290522054600019811461039e578181101561038f57604051637dc7a0d960e11b81526001600160a01b038416600482015260248101829052604481018390526064015b60405180910390fd5b61039e84848484036000610439565b50505050565b6001600160a01b0383166103ce57604051634b637e8f60e11b815260006004820152602401610386565b6001600160a01b0382166103f85760405163ec442f0560e01b815260006004820152602401610386565b61031c83838361050e565b6001600160a01b03821661042d5760405163ec442f0560e01b815260006004820152602401610386565b6102a06000838361050e565b6001600160a01b0384166104635760405163e602df0560e01b815260006004820152602401610386565b6001600160a01b03831661048d57604051634a1406b160e11b815260006004820152602401610386565b6001600160a01b038085166000908152600160209081526040808320938716835292905220829055801561039e57826001600160a01b0316846001600160a01b03167f8c5be1e5ebec7d5bd14f71427d1e84f3dd0314c0f7b2291e5b200ac8c7c3b9258460405161050091815260200190565b60405180910390a350505050565b6001600160a01b03831661053957806002600082825461052e919061079e565b909155506105ab9050565b6001600160a01b0383166000908152602081905260409020548181101561058c5760405163391434e360e21b81526001600160a01b03851660048201526024810182905260448101839052606401610386565b6001600160a01b03841660009081526020819052604090209082900390555b6001600160a01b0382166105c7576002805482900390556105e6565b6001600160a01b03821660009081526020819052604090208054820190555b816001600160a01b0316836001600160a01b03167fddf252ad1be2c89b69c2b068fc378daa952ba7f163c4a11628f55a4df523b3ef8360405161062b91815260200190565b60405180910390a3505050565b600060208083528351808285015260005b8181101561066557858101830151858201604001528201610649565b81811115610677576000604083870101525b50601f01601f1916929092016040019392505050565b80356001600160a01b03811681146106a457600080fd5b919050565b600080604083850312156106bc57600080fd5b6106c58361068d565b946020939093013593505050565b6000806000606084860312156106e857600080fd5b6106f18461068d565b92506106ff6020850161068d565b9150604084013590509250925092565b60006020828403121561072157600080fd5b61072a8261068d565b9392505050565b6000806040838503121561074457600080fd5b61074d8361068d565b915061075b6020840161068d565b90509250929050565b600181811c9082168061077857607f821691505b60208210810361079857634e487b7160e01b600052602260045260246000fd5b50919050565b600082198211156107bf57634e487b7160e01b600052601160045260246000fd5b50019056fea2646970667358221220122f8de7003b188e006009b65532495348bc80d846d07a9fae443f9cf88a585f64736f6c634300080d0033",
    "linkReferences": {}
  },
  "methodIdentifiers": {
    "ChangeUser(address)": "b4c7f260",
    "CreateMoney(address,uint256)": "644e9c18",
    "allowance(address,address)": "dd62ed3e",
    "approve(address,uint256)": "095ea7b3",
    "balanceOf(address)": "70a08231",
    "decimals()": "313ce567",
    "name()": "06fdde03",
    "symbol()": "95d89b41",
    "totalSupply()": "18160ddd",
    "transfer(address,uint256)": "a9059cbb",
    "transferFrom(address,address,uint256)": "23b872dd"
  },
  "id": 22
}