{
  "abi": [
    {
      "inputs": [],
      "stateMutability": "nonpayable",
      "type": "constructor"
    },
    {
      "inputs": [
        {
          "internalType": "address",
          "name": "spender",
          "type": "address"
        },
        {
          "internalType": "uint256",
          "name": "allowance",
          "type": "uint256"
        },
        {
          "internalType": "uint256",
          "name": "needed",
          "type": "uint256"
        }
      ],
      "name": "ERC20InsufficientAllowance",
      "type": "error"
    },
    {
      "inputs": [
        {
          "internalType": "address",
          "name": "sender",
          "type": "address"
        },
        {
          "internalType": "uint256",
          "name": "balance",
          "type": "uint256"
        },
        {
          "internalType": "uint256",
          "name": "needed",
          "type": "uint256"
        }
      ],
      "name": "ERC20InsufficientBalance",
      "type": "error"
    },
    {
      "inputs": [
        {
          "internalType": "address",
          "name": "approver",
          "type": "address"
        }
      ],
      "name": "ERC20InvalidApprover",
      "type": "error"
    },
    {
      "inputs": [
        {
          "internalType": "address",
          "name": "receiver",
          "type": "address"
        }
      ],
      "name": "ERC20InvalidReceiver",
      "type": "error"
    },
    {
      "inputs": [
        {
          "internalType": "address",
          "name": "sender",
          "type": "address"
        }
      ],
      "name": "ERC20InvalidSender",
      "type": "error"
    },
    {
      "inputs": [
        {
          "internalType": "address",
          "name": "spender",
          "type": "address"
        }
      ],
      "name": "ERC20InvalidSpender",
      "type": "error"
    },
    {
      "anonymous": false,
      "inputs": [
        {
          "indexed": true,
          "internalType": "address",
          "name": "owner",
          "type": "address"
        },
        {
          "indexed": true,
          "internalType": "address",
          "name": "spender",
          "type": "address"
        },
        {
          "indexed": false,
          "internalType": "uint256",
          "name": "value",
          "type": "uint256"
        }
      ],
      "name": "Approval",
      "type": "event"
    },
    {
      "anonymous": false,
      "inputs": [
        {
          "indexed": true,
          "internalType": "address",
          "name": "from",
          "type": "address"
        },
        {
          "indexed": true,
          "internalType": "address",
          "name": "to",
          "type": "address"
        },
        {
          "indexed": false,
          "internalType": "uint256",
          "name": "value",
          "type": "uint256"
        }
      ],
      "name": "Transfer",
      "type": "event"
    },
    {
      "inputs": [
        {
          "internalType": "address",
          "name": "_add",
          "type": "address"
        }
      ],
      "name": "ChangeUser",
      "outputs": [],
      "stateMutability": "nonpayable",
      "type": "function"
    },
    {
      "inputs": [
        {
          "internalType": "address",
          "name": "_cible",
          "type": "address"
        },
        {
          "internalType": "uint256",
          "name": "_amount",
          "type": "uint256"
        }
      ],
      "name": "CreateMoney",
      "outputs": [],
      "stateMutability": "nonpayable",
      "type": "function"
    },
    {
      "inputs": [
        {
          "internalType": "address",
          "name": "owner",
          "type": "address"
        },
        {
          "internalType": "address",
          "name": "spender",
          "type": "address"
        }
      ],
      "name": "allowance",
      "outputs": [
        {
          "internalType": "uint256",
          "name": "",
          "type": "uint256"
        }
      ],
      "stateMutability": "view",
      "type": "function"
    },
    {
      "inputs": [
        {
          "internalType": "address",
          "name": "spender",
          "type": "address"
        },
        {
          "internalType": "uint256",
          "name": "value",
          "type": "uint256"
        }
      ],
      "name": "approve",
      "outputs": [
        {
          "internalType": "bool",
          "name": "",
          "type": "bool"
        }
      ],
      "stateMutability": "nonpayable",
      "type": "function"
    },
    {
      "inputs": [
        {
          "internalType": "address",
          "name": "account",
          "type": "address"
        }
      ],
      "name": "balanceOf",
      "outputs": [
        {
          "internalType": "uint256",
          "name": "",
          "type": "uint256"
        }
      ],
      "stateMutability": "view",
      "type": "function"
    },
    {
      "inputs": [],
      "name": "decimals",
      "outputs": [
        {
          "internalType": "uint8",
          "name": "",
          "type": "uint8"
        }
      ],
      "stateMutability": "view",
      "type": "function"
    },
    {
      "inputs": [],
      "name": "name",
      "outputs": [
        {
          "internalType": "string",
          "name": "",
          "type": "string"
        }
      ],
      "stateMutability": "view",
      "type": "function"
    },
    {
      "inputs": [],
      "name": "symbol",
      "outputs": [
        {
          "internalType": "string",
          "name": "",
          "type": "string"
        }
      ],
      "stateMutability": "view",
      "type": "function"
    },
    {
      "inputs": [],
      "name": "totalSupply",
      "outputs": [
        {
          "internalType": "uint256",
          "name": "",
          "type": "uint256"
        }
      ],
      "stateMutability": "view",
      "type": "function"
    },
    {
      "inputs": [
        {
          "internalType": "address",
          "name": "to",
          "type": "address"
        },
        {
          "internalType": "uint256",
          "name": "value",
          "type": "uint256"
        }
      ],
      "name": "transfer",
      "outputs": [
        {
          "internalType": "bool",
          "name": "",
          "type": "bool"
        }
      ],
      "stateMutability": "nonpayable",
      "type": "function"
    },
    {
      "inputs": [
        {
          "internalType": "address",
          "name": "from",
          "type": "address"
        },
        {
          "internalType": "address",
          "name": "to",
          "type": "address"
        },
        {
          "internalType": "uint256",
          "name": "value",
          "type": "uint256"
        }
      ],
      "name": "transferFrom",
      "outputs": [
        {
          "internalType": "bool",
          "name": "",
          "type": "bool"
        }
      ],
      "stateMutability": "nonpayable",
      "type": "function"
    }
  ],
  "bytecode": {
    "object": "0x608060405260058054732bdc20f9377221032bcbfbcf9ea5bb8b4a2121656001600160a01b0319918216811790925560068054909116909117905534801561004657600080fd5b506040518060400160405280600a81526020016929ba30b13632a1b7b0b760b11b8152506040518060400160405280600381526020016253544360e81b81525081600390816100959190610149565b5060046100a28282610149565b505050610208565b634e487b7160e01b600052604160045260246000fd5b600181811c908216806100d457607f821691505b6020821081036100f457634e487b7160e01b600052602260045260246000fd5b50919050565b601f82111561014457600081815260208120601f850160051c810160208610156101215750805b601f850160051c820191505b818110156101405782815560010161012d565b5050505b505050565b81516001600160401b03811115610162576101626100aa565b6101768161017084546100c0565b846100fa565b602080601f8311600181146101ab57600084156101935750858301515b600019600386901b1c1916600185901b178555610140565b600085815260208120601f198616915b828110156101da578886015182559484019460019091019084016101bb565b50858210156101f85787850151600019600388901b60f8161c191681555b5050505050600190811b01905550565b61084c806102176000396000f3fe608060405234801561001057600080fd5b50600436106100a95760003560e01c8063644e9c1811610071578063644e9c181461012357806370a082311461013857806395d89b4114610161578063a9059cbb14610169578063b4c7f2601461017c578063dd62ed3e1461018f57600080fd5b806306fdde03146100ae578063095ea7b3146100cc57806318160ddd146100ef57806323b872dd14610101578063313ce56714610114575b600080fd5b6100b66101c8565b6040516100c39190610677565b60405180910390f35b6100df6100da3660046106e1565b61025a565b60405190151581526020016100c3565b6002545b6040519081526020016100c3565b6100df61010f36600461070b565b610274565b604051601281526020016100c3565b6101366101313660046106e1565b610298565b005b6100f3610146366004610747565b6001600160a01b031660009081526020819052604090205490565b6100b66102e3565b6100df6101773660046106e1565b6102f2565b61013661018a366004610747565b610300565b6100f361019d366004610769565b6001600160a01b03918216600090815260016020908152604080832093909416825291909152205490565b6060600380546101d79061079c565b80601f01602080910402602001604051908101604052809291908181526020018280546102039061079c565b80156102505780601f1061022557610100808354040283529160200191610250565b820191906000526020600020905b81548152906001019060200180831161023357829003601f168201915b5050505050905090565b60003361026881858561034e565b60019150505b92915050565b600033610282858285610360565b61028d8585856103e3565b506001949350505050565b6005546001600160a01b03163314806102bb57506006546001600160a01b031633145b6102c457600080fd5b6102df826102da83670de0b6b3a76400006107ec565b610442565b5050565b6060600480546101d79061079c565b6000336102688185856103e3565b6005546001600160a01b031633148061032357506006546001600160a01b031633145b61032c57600080fd5b600680546001600160a01b0319166001600160a01b0392909216919091179055565b61035b8383836001610478565b505050565b6001600160a01b0383811660009081526001602090815260408083209386168352929052205460001981146103dd57818110156103ce57604051637dc7a0d960e11b81526001600160a01b038416600482015260248101829052604481018390526064015b60405180910390fd5b6103dd84848484036000610478565b50505050565b6001600160a01b03831661040d57604051634b637e8f60e11b8152600060048201526024016103c5565b6001600160a01b0382166104375760405163ec442f0560e01b8152600060048201526024016103c5565b61035b83838361054d565b6001600160a01b03821661046c5760405163ec442f0560e01b8152600060048201526024016103c5565b6102df6000838361054d565b6001600160a01b0384166104a25760405163e602df0560e01b8152600060048201526024016103c5565b6001600160a01b0383166104cc57604051634a1406b160e11b8152600060048201526024016103c5565b6001600160a01b03808516600090815260016020908152604080832093871683529290522082905580156103dd57826001600160a01b0316846001600160a01b03167f8c5be1e5ebec7d5bd14f71427d1e84f3dd0314c0f7b2291e5b200ac8c7c3b9258460405161053f91815260200190565b60405180910390a350505050565b6001600160a01b03831661057857806002600082825461056d9190610803565b909155506105ea9050565b6001600160a01b038316600090815260208190526040902054818110156105cb5760405163391434e360e21b81526001600160a01b038516600482015260248101829052604481018390526064016103c5565b6001600160a01b03841660009081526020819052604090209082900390555b6001600160a01b03821661060657600280548290039055610625565b6001600160a01b03821660009081526020819052604090208054820190555b816001600160a01b0316836001600160a01b03167fddf252ad1be2c89b69c2b068fc378daa952ba7f163c4a11628f55a4df523b3ef8360405161066a91815260200190565b60405180910390a3505050565b600060208083528351808285015260005b818110156106a457858101830151858201604001528201610688565b506000604082860101526040601f19601f8301168501019250505092915050565b80356001600160a01b03811681146106dc57600080fd5b919050565b600080604083850312156106f457600080fd5b6106fd836106c5565b946020939093013593505050565b60008060006060848603121561072057600080fd5b610729846106c5565b9250610737602085016106c5565b9150604084013590509250925092565b60006020828403121561075957600080fd5b610762826106c5565b9392505050565b6000806040838503121561077c57600080fd5b610785836106c5565b9150610793602084016106c5565b90509250929050565b600181811c908216806107b057607f821691505b6020821081036107d057634e487b7160e01b600052602260045260246000fd5b50919050565b634e487b7160e01b600052601160045260246000fd5b808202811582820484141761026e5761026e6107d6565b8082018082111561026e5761026e6107d656fea26469706673582212200f5a8bd86a68137ceea6c2b274d2a28958c3f6e6eee871d34b591c9b06fb941f64736f6c63430008150033",
    "linkReferences": {}
  },
  "methodIdentifiers": {
    "ChangeUser(address)": "b4c7f260",
    "CreateMoney(address,uint256)": "644e9c18",
    "allowance(address,address)": "dd62ed3e",
    "approve(address,uint256)": "095ea7b3",
    "balanceOf(address)": "70a08231",
    "decimals()": "313ce567",
    "name()": "06fdde03",
    "symbol()": "95d89b41",
    "totalSupply()": "18160ddd",
    "transfer(address,uint256)": "a9059cbb",
    "transferFrom(address,address,uint256)": "23b872dd"
  },
  "id": 21
}